{
    "contractName": "AceToken",
    "abi": [
        {
            "inputs": [],
            "stateMutability": "nonpayable",
            "type": "constructor"
        },
        {
            "inputs": [
                {
                    "internalType": "address",
                    "name": "",
                    "type": "address"
                }
            ],
            "name": "balances",
            "outputs": [
                {
                    "internalType": "uint256",
                    "name": "",
                    "type": "uint256"
                }
            ],
            "stateMutability": "view",
            "type": "function"
        },
        {
            "inputs": [
                {
                    "internalType": "address",
                    "name": "receiver",
                    "type": "address"
                },
                {
                    "internalType": "uint256",
                    "name": "amount",
                    "type": "uint256"
                }
            ],
            "name": "mint",
            "outputs": [],
            "stateMutability": "nonpayable",
            "type": "function"
        },
        {
            "inputs": [],
            "name": "minter",
            "outputs": [
                {
                    "internalType": "address",
                    "name": "",
                    "type": "address"
                }
            ],
            "stateMutability": "view",
            "type": "function"
        },
        {
            "inputs": [
                {
                    "internalType": "address",
                    "name": "receiver",
                    "type": "address"
                },
                {
                    "internalType": "uint256",
                    "name": "amount",
                    "type": "uint256"
                }
            ],
            "name": "send",
            "outputs": [],
            "stateMutability": "nonpayable",
            "type": "function"
        }
    ],
    "bytecode": "608060405234801561001057600080fd5b50600080546001600160a01b03191633179055610224806100326000396000f3fe608060405234801561001057600080fd5b506004361061004c5760003560e01c8063075461721461005157806327e235e31461007557806340c10f19146100ad578063d0679d34146100db575b600080fd5b610059610107565b604080516001600160a01b039092168252519081900360200190f35b61009b6004803603602081101561008b57600080fd5b50356001600160a01b0316610116565b60408051918252519081900360200190f35b6100d9600480360360408110156100c357600080fd5b506001600160a01b038135169060200135610128565b005b6100d9600480360360408110156100f157600080fd5b506001600160a01b038135169060200135610161565b6000546001600160a01b031681565b60016020526000908152604090205481565b6000546001600160a01b0316331461013f57600080fd5b6001600160a01b03909116600090815260016020526040902080549091019055565b336000908152600160205260409020548111156101bc576040805162461bcd60e51b8152602060048201526014602482015273496e73756666696369656e742042616c616e636560601b604482015290519081900360640190fd5b33600090815260016020526040808220805484900390556001600160a01b03939093168152919091208054909101905556fea2646970667358221220f10f73164a0d27f3b6b42c28f7ea5d7e5ab6b202544c1ae9b89cbac1f0021b0f64736f6c63430007000033",
    "sourcePath": "d:/WorkProjects/Instadapp/web3js-etherjs-test/contracts/AceToken.sol",
    "compiler": {
        "name": "solc",
        "version": "0.7.0+commit.9e61f92b"
    },
    "functionHashes": {
        "balances(address)": "27e235e3",
        "mint(address,uint256)": "40c10f19",
        "minter()": "07546172",
        "send(address,uint256)": "d0679d34"
    },
    "gasEstimates": {
        "creation": {
            "codeDepositCost": "109600",
            "executionCost": "20994",
            "totalCost": "130594"
        },
        "external": {
            "balances(address)": "1124",
            "mint(address,uint256)": "21989",
            "minter()": "1015",
            "send(address,uint256)": "42945"
        }
    }
}